{
  "contractName": "RoadContract",
  "abi": [
    {
      "constant": true,
      "inputs": [],
      "name": "numVehicles",
      "outputs": [
        {
          "name": "",
          "type": "uint256"
        }
      ],
      "payable": false,
      "stateMutability": "view",
      "type": "function"
    },
    {
      "constant": true,
      "inputs": [
        {
          "name": "",
          "type": "string"
        }
      ],
      "name": "users",
      "outputs": [
        {
          "name": "balance",
          "type": "uint256"
        },
        {
          "name": "txnHash",
          "type": "string"
        }
      ],
      "payable": false,
      "stateMutability": "view",
      "type": "function"
    },
    {
      "constant": true,
      "inputs": [
        {
          "name": "",
          "type": "string"
        }
      ],
      "name": "boothCollection",
      "outputs": [
        {
          "name": "",
          "type": "uint256"
        }
      ],
      "payable": false,
      "stateMutability": "view",
      "type": "function"
    },
    {
      "constant": true,
      "inputs": [
        {
          "name": "",
          "type": "string"
        }
      ],
      "name": "roads",
      "outputs": [
        {
          "name": "roadAmount",
          "type": "uint256"
        },
        {
          "name": "deductionForCar",
          "type": "uint256"
        },
        {
          "name": "deductionForBus",
          "type": "uint256"
        },
        {
          "name": "deductionForTruck",
          "type": "uint256"
        },
        {
          "name": "collectedSoFar",
          "type": "uint256"
        }
      ],
      "payable": false,
      "stateMutability": "view",
      "type": "function"
    },
    {
      "constant": true,
      "inputs": [
        {
          "name": "",
          "type": "string"
        }
      ],
      "name": "vehicles",
      "outputs": [
        {
          "name": "vehicleType",
          "type": "string"
        }
      ],
      "payable": false,
      "stateMutability": "view",
      "type": "function"
    },
    {
      "constant": true,
      "inputs": [
        {
          "name": "",
          "type": "string"
        }
      ],
      "name": "vehicleMapping",
      "outputs": [
        {
          "name": "",
          "type": "string"
        }
      ],
      "payable": false,
      "stateMutability": "view",
      "type": "function"
    },
    {
      "constant": true,
      "inputs": [],
      "name": "numRoads",
      "outputs": [
        {
          "name": "",
          "type": "uint256"
        }
      ],
      "payable": false,
      "stateMutability": "view",
      "type": "function"
    },
    {
      "inputs": [],
      "payable": false,
      "stateMutability": "nonpayable",
      "type": "constructor"
    },
    {
      "constant": false,
      "inputs": [
        {
          "name": "_roadId",
          "type": "string"
        },
        {
          "name": "_roadAmount",
          "type": "uint256"
        },
        {
          "name": "_deductionForCar",
          "type": "uint256"
        },
        {
          "name": "_deductionForTruck",
          "type": "uint256"
        },
        {
          "name": "_deductionForBus",
          "type": "uint256"
        }
      ],
      "name": "setNewRoad",
      "outputs": [],
      "payable": false,
      "stateMutability": "nonpayable",
      "type": "function"
    },
    {
      "constant": false,
      "inputs": [
        {
          "name": "_vehicleId",
          "type": "string"
        },
        {
          "name": "_userId",
          "type": "string"
        },
        {
          "name": "_vehicleType",
          "type": "string"
        }
      ],
      "name": "addVehicle",
      "outputs": [],
      "payable": false,
      "stateMutability": "nonpayable",
      "type": "function"
    },
    {
      "constant": false,
      "inputs": [
        {
          "name": "_boothId",
          "type": "string"
        }
      ],
      "name": "addBooth",
      "outputs": [],
      "payable": false,
      "stateMutability": "nonpayable",
      "type": "function"
    },
    {
      "constant": false,
      "inputs": [
        {
          "name": "_userId",
          "type": "string"
        }
      ],
      "name": "makeNewUser",
      "outputs": [],
      "payable": false,
      "stateMutability": "nonpayable",
      "type": "function"
    },
    {
      "constant": false,
      "inputs": [
        {
          "name": "_roadId",
          "type": "string"
        },
        {
          "name": "_vehicleId",
          "type": "string"
        },
        {
          "name": "_boothId",
          "type": "string"
        }
      ],
      "name": "validateTxn",
      "outputs": [
        {
          "name": "",
          "type": "bool"
        }
      ],
      "payable": false,
      "stateMutability": "nonpayable",
      "type": "function"
    },
    {
      "constant": true,
      "inputs": [
        {
          "name": "_s1",
          "type": "string"
        },
        {
          "name": "_s2",
          "type": "string"
        }
      ],
      "name": "compareStrings",
      "outputs": [
        {
          "name": "",
          "type": "bool"
        }
      ],
      "payable": false,
      "stateMutability": "pure",
      "type": "function"
    },
    {
      "constant": false,
      "inputs": [
        {
          "name": "_userId",
          "type": "string"
        },
        {
          "name": "_value",
          "type": "uint256"
        }
      ],
      "name": "updateBalance",
      "outputs": [],
      "payable": false,
      "stateMutability": "nonpayable",
      "type": "function"
    },
    {
      "constant": true,
      "inputs": [
        {
          "name": "_vehicleId",
          "type": "string"
        },
        {
          "name": "_hash",
          "type": "string"
        }
      ],
      "name": "checkTxnHash",
      "outputs": [
        {
          "name": "",
          "type": "bool"
        }
      ],
      "payable": false,
      "stateMutability": "view",
      "type": "function"
    },
    {
      "constant": false,
      "inputs": [
        {
          "name": "_vehicleId",
          "type": "string"
        },
        {
          "name": "_oldHash",
          "type": "string"
        },
        {
          "name": "_newHash",
          "type": "string"
        }
      ],
      "name": "updateTxnHash",
      "outputs": [],
      "payable": false,
      "stateMutability": "nonpayable",
      "type": "function"
    }
  ],
  "bytecode": "0x608060405234801561001057600080fd5b5060006005819055506000600681905550612695806100306000396000f3fe608060405234801561001057600080fd5b50600436106101005760003560e01c8063870187eb11610097578063ad2d5a4411610066578063ad2d5a4414610eec578063bed34bba14611020578063c26fc26a1461118a578063e9a88e191461124557610100565b8063870187eb14610a9e57806394ae8d6a14610b63578063976de5c514610c4e578063ab3b819114610d8257610100565b806359332ad5116100d357806359332ad5146104aa578063689e1c03146106935780637719ebd6146107ce578063773e8aa41461089d57610100565b80631151dbae146101055780632ba415df146101c05780633df1525d146102a35780633e5d9c951461048c575b600080fd5b6101be6004803603602081101561011b57600080fd5b810190808035906020019064010000000081111561013857600080fd5b82018360208201111561014a57600080fd5b8035906020019184600183028401116401000000008311171561016c57600080fd5b91908080601f016020809104026020016040519081016040528093929190818152602001838380828437600081840152601f19601f820116905080830192505050505050509192919290505050611263565b005b6102a1600480360360a08110156101d657600080fd5b81019080803590602001906401000000008111156101f357600080fd5b82018360208201111561020557600080fd5b8035906020019184600183028401116401000000008311171561022757600080fd5b91908080601f016020809104026020016040519081016040528093929190818152602001838380828437600081840152601f19601f82011690508083019250505050505050919291929080359060200190929190803590602001909291908035906020019092919080359060200190929190505050611368565b005b61048a600480360360608110156102b957600080fd5b81019080803590602001906401000000008111156102d657600080fd5b8201836020820111156102e857600080fd5b8035906020019184600183028401116401000000008311171561030a57600080fd5b91908080601f016020809104026020016040519081016040528093929190818152602001838380828437600081840152601f19601f8201169050808301925050505050505091929192908035906020019064010000000081111561036d57600080fd5b82018360208201111561037f57600080fd5b803590602001918460018302840111640100000000831117156103a157600080fd5b91908080601f016020809104026020016040519081016040528093929190818152602001838380828437600081840152601f19601f8201169050808301925050505050505091929192908035906020019064010000000081111561040457600080fd5b82018360208201111561041657600080fd5b8035906020019184600183028401116401000000008311171561043857600080fd5b91908080601f016020809104026020016040519081016040528093929190818152602001838380828437600081840152601f19601f82011690508083019250505050505050919291929050505061153f565b005b6104946115d5565b6040518082815260200191505060405180910390f35b610691600480360360608110156104c057600080fd5b81019080803590602001906401000000008111156104dd57600080fd5b8201836020820111156104ef57600080fd5b8035906020019184600183028401116401000000008311171561051157600080fd5b91908080601f016020809104026020016040519081016040528093929190818152602001838380828437600081840152601f19601f8201169050808301925050505050505091929192908035906020019064010000000081111561057457600080fd5b82018360208201111561058657600080fd5b803590602001918460018302840111640100000000831117156105a857600080fd5b91908080601f016020809104026020016040519081016040528093929190818152602001838380828437600081840152601f19601f8201169050808301925050505050505091929192908035906020019064010000000081111561060b57600080fd5b82018360208201111561061d57600080fd5b8035906020019184600183028401116401000000008311171561063f57600080fd5b91908080601f016020809104026020016040519081016040528093929190818152602001838380828437600081840152601f19601f8201169050808301925050505050505091929192905050506115db565b005b61074c600480360360208110156106a957600080fd5b81019080803590602001906401000000008111156106c657600080fd5b8201836020820111156106d857600080fd5b803590602001918460018302840111640100000000831117156106fa57600080fd5b91908080601f016020809104026020016040519081016040528093929190818152602001838380828437600081840152601f19601f8201169050808301925050505050505091929192905050506116eb565b6040518083815260200180602001828103825283818151815260200191508051906020019080838360005b83811015610792578082015181840152602081019050610777565b50505050905090810190601f1680156107bf5780820380516001836020036101000a031916815260200191505b50935050505060405180910390f35b610887600480360360208110156107e457600080fd5b810190808035906020019064010000000081111561080157600080fd5b82018360208201111561081357600080fd5b8035906020019184600183028401116401000000008311171561083557600080fd5b91908080601f016020809104026020016040519081016040528093929190818152602001838380828437600081840152601f19601f8201169050808301925050505050505091929192905050506117bd565b6040518082815260200191505060405180910390f35b610a84600480360360608110156108b357600080fd5b81019080803590602001906401000000008111156108d057600080fd5b8201836020820111156108e257600080fd5b8035906020019184600183028401116401000000008311171561090457600080fd5b91908080601f016020809104026020016040519081016040528093929190818152602001838380828437600081840152601f19601f8201169050808301925050505050505091929192908035906020019064010000000081111561096757600080fd5b82018360208201111561097957600080fd5b8035906020019184600183028401116401000000008311171561099b57600080fd5b91908080601f016020809104026020016040519081016040528093929190818152602001838380828437600081840152601f19601f820116905080830192505050505050509192919290803590602001906401000000008111156109fe57600080fd5b820183602082011115610a1057600080fd5b80359060200191846001830284011164010000000083111715610a3257600080fd5b91908080601f016020809104026020016040519081016040528093929190818152602001838380828437600081840152601f19601f8201169050808301925050505050505091929192905050506117eb565b604051808215151515815260200191505060405180910390f35b610b6160048036036040811015610ab457600080fd5b8101908080359060200190640100000000811115610ad157600080fd5b820183602082011115610ae357600080fd5b80359060200191846001830284011164010000000083111715610b0557600080fd5b91908080601f016020809104026020016040519081016040528093929190818152602001838380828437600081840152601f19601f82011690508083019250505050505050919291929080359060200190929190505050612165565b005b610c1c60048036036020811015610b7957600080fd5b8101908080359060200190640100000000811115610b9657600080fd5b820183602082011115610ba857600080fd5b80359060200191846001830284011164010000000083111715610bca57600080fd5b91908080601f016020809104026020016040519081016040528093929190818152602001838380828437600081840152601f19601f820116905080830192505050505050509192919290505050612248565b604051808681526020018581526020018481526020018381526020018281526020019550505050505060405180910390f35b610d0760048036036020811015610c6457600080fd5b8101908080359060200190640100000000811115610c8157600080fd5b820183602082011115610c9357600080fd5b80359060200191846001830284011164010000000083111715610cb557600080fd5b91908080601f016020809104026020016040519081016040528093929190818152602001838380828437600081840152601f19601f820116905080830192505050505050509192919290505050612294565b6040518080602001828103825283818151815260200191508051906020019080838360005b83811015610d47578082015181840152602081019050610d2c565b50505050905090810190601f168015610d745780820380516001836020036101000a031916815260200191505b509250505060405180910390f35b610ed260048036036040811015610d9857600080fd5b8101908080359060200190640100000000811115610db557600080fd5b820183602082011115610dc757600080fd5b80359060200191846001830284011164010000000083111715610de957600080fd5b91908080601f016020809104026020016040519081016040528093929190818152602001838380828437600081840152601f19601f82011690508083019250505050505050919291929080359060200190640100000000811115610e4c57600080fd5b820183602082011115610e5e57600080fd5b80359060200191846001830284011164010000000083111715610e8057600080fd5b91908080601f016020809104026020016040519081016040528093929190818152602001838380828437600081840152601f19601f820116905080830192505050505050509192919290505050612360565b604051808215151515815260200191505060405180910390f35b610fa560048036036020811015610f0257600080fd5b8101908080359060200190640100000000811115610f1f57600080fd5b820183602082011115610f3157600080fd5b80359060200191846001830284011164010000000083111715610f5357600080fd5b91908080601f016020809104026020016040519081016040528093929190818152602001838380828437600081840152601f19601f820116905080830192505050505050509192919290505050612458565b6040518080602001828103825283818151815260200191508051906020019080838360005b83811015610fe5578082015181840152602081019050610fca565b50505050905090810190601f1680156110125780820380516001836020036101000a031916815260200191505b509250505060405180910390f35b6111706004803603604081101561103657600080fd5b810190808035906020019064010000000081111561105357600080fd5b82018360208201111561106557600080fd5b8035906020019184600183028401116401000000008311171561108757600080fd5b91908080601f016020809104026020016040519081016040528093929190818152602001838380828437600081840152601f19601f820116905080830192505050505050509192919290803590602001906401000000008111156110ea57600080fd5b8201836020820111156110fc57600080fd5b8035906020019184600183028401116401000000008311171561111e57600080fd5b91908080601f016020809104026020016040519081016040528093929190818152602001838380828437600081840152601f19601f82011690508083019250505050505050919291929050505061251e565b604051808215151515815260200191505060405180910390f35b611243600480360360208110156111a057600080fd5b81019080803590602001906401000000008111156111bd57600080fd5b8201836020820111156111cf57600080fd5b803590602001918460018302840111640100000000831117156111f157600080fd5b91908080601f016020809104026020016040519081016040528093929190818152602001838380828437600081840152601f19601f82011690508083019250505050505050919291929050505061254c565b005b61124d6125be565b6040518082815260200191505060405180910390f35b60006002826040518082805190602001908083835b6020831061129b5780518252602082019150602081019050602083039250611278565b6001836020036101000a038019825116818451168082178552505050505050905001915050908152602001604051809103902060000181905550604051806020016040528060008152506002826040518082805190602001908083835b6020831061131b57805182526020820191506020810190506020830392506112f8565b6001836020036101000a038019825116818451168082178552505050505050905001915050908152602001604051809103902060010190805190602001906113649291906125c4565b5050565b836001866040518082805190602001908083835b6020831061139f578051825260208201915060208101905060208303925061137c565b6001836020036101000a038019825116818451168082178552505050505050905001915050908152602001604051809103902060000181905550826001866040518082805190602001908083835b6020831061141057805182526020820191506020810190506020830392506113ed565b6001836020036101000a038019825116818451168082178552505050505050905001915050908152602001604051809103902060010181905550806001866040518082805190602001908083835b60208310611481578051825260208201915060208101905060208303925061145e565b6001836020036101000a038019825116818451168082178552505050505050905001915050908152602001604051809103902060020181905550816001866040518082805190602001908083835b602083106114f257805182526020820191506020810190506020830392506114cf565b6001836020036101000a0380198251168184511680821785525050505050509050019150509081526020016040518091039020600301819055506001600554016005819055505050505050565b6115498383612360565b156115d057806002846040518082805190602001908083835b602083106115855780518252602082019150602081019050602083039250611562565b6001836020036101000a038019825116818451168082178552505050505050905001915050908152602001604051809103902060010190805190602001906115ce9291906125c4565b505b505050565b60065481565b816000846040518082805190602001908083835b6020831061161257805182526020820191506020810190506020830392506115ef565b6001836020036101000a038019825116818451168082178552505050505050905001915050908152602001604051809103902090805190602001906116589291906125c4565b50806003846040518082805190602001908083835b60208310611690578051825260208201915060208101905060208303925061166d565b6001836020036101000a038019825116818451168082178552505050505050905001915050908152602001604051809103902060000190805190602001906116d99291906125c4565b50600160065401600681905550505050565b600281805160208101820180518482526020830160208501208183528095505050505050600091509050806000015490806001018054600181600116156101000203166002900480601f0160208091040260200160405190810160405280929190818152602001828054600181600116156101000203166002900480156117b35780601f10611788576101008083540402835291602001916117b3565b820191906000526020600020905b81548152906001019060200180831161179657829003601f168201915b5050505050905082565b6004818051602081018201805184825260208301602085012081835280955050505050506000915090505481565b600060606000846040518082805190602001908083835b602083106118255780518252602082019150602081019050602083039250611802565b6001836020036101000a03801982511681845116808217855250505050505090500191505090815260200160405180910390208054600181600116156101000203166002900480601f0160208091040260200160405190810160405280929190818152602001828054600181600116156101000203166002900480156118ec5780601f106118c1576101008083540402835291602001916118ec565b820191906000526020600020905b8154815290600101906020018083116118cf57829003601f168201915b5050505050905060606003856040518082805190602001908083835b6020831061192b5780518252602082019150602081019050602083039250611908565b6001836020036101000a03801982511681845116808217855250505050505090500191505090815260200160405180910390206000018054600181600116156101000203166002900480601f0160208091040260200160405190810160405280929190818152602001828054600181600116156101000203166002900480156119f55780601f106119ca576101008083540402835291602001916119f5565b820191906000526020600020905b8154815290600101906020018083116119d857829003601f168201915b5050505050905060006001876040518082805190602001908083835b60208310611a345780518252602082019150602081019050602083039250611a11565b6001836020036101000a03801982511681845116808217855250505050505090500191505090815260200160405180910390206000015411611ade576040517f08c379a00000000000000000000000000000000000000000000000000000000081526004018080602001828103825260158152602001807f45786861757374656420726f616420616d6f756e74000000000000000000000081525060200191505060405180910390fd5b6000809050611b22826040518060400160405280600381526020017f636172000000000000000000000000000000000000000000000000000000000081525061251e565b15611b97576001876040518082805190602001908083835b60208310611b5d5780518252602082019150602081019050602083039250611b3a565b6001836020036101000a03801982511681845116808217855250505050505090500191505090815260200160405180910390206001015490505b611bd6826040518060400160405280600381526020017f627573000000000000000000000000000000000000000000000000000000000081525061251e565b15611c4b576001876040518082805190602001908083835b60208310611c115780518252602082019150602081019050602083039250611bee565b6001836020036101000a03801982511681845116808217855250505050505090500191505090815260200160405180910390206002015490505b611c8a826040518060400160405280600581526020017f747275636b00000000000000000000000000000000000000000000000000000081525061251e565b15611cff576001876040518082805190602001908083835b60208310611cc55780518252602082019150602081019050602083039250611ca2565b6001836020036101000a03801982511681845116808217855250505050505090500191505090815260200160405180910390206003015490505b806002846040518082805190602001908083835b60208310611d365780518252602082019150602081019050602083039250611d13565b6001836020036101000a0380198251168184511680821785525050505050509050019150509081526020016040518091039020600001541015611de1576040517f08c379a000000000000000000000000000000000000000000000000000000000815260040180806020018281038252600b8152602001807f6c6f772042616c616e636500000000000000000000000000000000000000000081525060200191505060405180910390fd5b806002846040518082805190602001908083835b60208310611e185780518252602082019150602081019050602083039250611df5565b6001836020036101000a038019825116818451168082178552505050505050905001915050908152602001604051809103902060000154036002846040518082805190602001908083835b60208310611e865780518252602082019150602081019050602083039250611e63565b6001836020036101000a038019825116818451168082178552505050505050905001915050908152602001604051809103902060000181905550806004866040518082805190602001908083835b60208310611ef75780518252602082019150602081019050602083039250611ed4565b6001836020036101000a038019825116818451168082178552505050505050905001915050908152602001604051809103902054016004866040518082805190602001908083835b60208310611f625780518252602082019150602081019050602083039250611f3f565b6001836020036101000a038019825116818451168082178552505050505050905001915050908152602001604051809103902081905550806001886040518082805190602001908083835b60208310611fd05780518252602082019150602081019050602083039250611fad565b6001836020036101000a038019825116818451168082178552505050505050905001915050908152602001604051809103902060000154036001886040518082805190602001908083835b6020831061203e578051825260208201915060208101905060208303925061201b565b6001836020036101000a038019825116818451168082178552505050505050905001915050908152602001604051809103902060000181905550806001886040518082805190602001908083835b602083106120af578051825260208201915060208101905060208303925061208c565b6001836020036101000a038019825116818451168082178552505050505050905001915050908152602001604051809103902060040154016001886040518082805190602001908083835b6020831061211d57805182526020820191506020810190506020830392506120fa565b6001836020036101000a038019825116818451168082178552505050505050905001915050908152602001604051809103902060040181905550600193505050509392505050565b806002836040518082805190602001908083835b6020831061219c5780518252602082019150602081019050602083039250612179565b6001836020036101000a038019825116818451168082178552505050505050905001915050908152602001604051809103902060000154016002836040518082805190602001908083835b6020831061220a57805182526020820191506020810190506020830392506121e7565b6001836020036101000a0380198251168184511680821785525050505050509050019150509081526020016040518091039020600001819055505050565b6001818051602081018201805184825260208301602085012081835280955050505050506000915090508060000154908060010154908060020154908060030154908060040154905085565b600381805160208101820180518482526020830160208501208183528095505050505050600091509050806000018054600181600116156101000203166002900480601f0160208091040260200160405190810160405280929190818152602001828054600181600116156101000203166002900480156123565780601f1061232b57610100808354040283529160200191612356565b820191906000526020600020905b81548152906001019060200180831161233957829003601f168201915b5050505050905081565b600081805190602001206002846040518082805190602001908083835b602083106123a0578051825260208201915060208101905060208303925061237d565b6001836020036101000a038019825116818451168082178552505050505050905001915050908152602001604051809103902060010160405180828054600181600116156101000203166002900480156124315780601f1061240f576101008083540402835291820191612431565b820191906000526020600020905b81548152906001019060200180831161241d575b50509150506040518091039020141561244d5760019050612452565b600090505b92915050565b6000818051602081018201805184825260208301602085012081835280955050505050506000915090508054600181600116156101000203166002900480601f0160208091040260200160405190810160405280929190818152602001828054600181600116156101000203166002900480156125165780601f106124eb57610100808354040283529160200191612516565b820191906000526020600020905b8154815290600101906020018083116124f957829003601f168201915b505050505081565b600081518351146125325760009050612546565b818051906020012083805190602001201490505b92915050565b60006004826040518082805190602001908083835b602083106125845780518252602082019150602081019050602083039250612561565b6001836020036101000a03801982511681845116808217855250505050505090500191505090815260200160405180910390208190555050565b60055481565b828054600181600116156101000203166002900490600052602060002090601f016020900481019282601f1061260557805160ff1916838001178555612633565b82800160010185558215612633579182015b82811115612632578251825591602001919060010190612617565b5b5090506126409190612644565b5090565b61266691905b8082111561266257600081600090555060010161264a565b5090565b9056fea165627a7a72305820df9edad34e73828aa8167104c0db4fd37de690348c77f69d96729f84e9e0c9f70029",
  "source": "pragma solidity >=0.4.21 <0.7.0;\n\ncontract RoadContract{\n    struct road {\n        uint roadAmount;\n        uint deductionForCar;\n        uint deductionForBus;\n        uint deductionForTruck;\n        uint collectedSoFar;\n    }\n    struct user {\n        uint balance;\n        string txnHash;\n    }\n    struct vehicle{\n        string vehicleType;\n    }\n    mapping(string => string) public vehicleMapping;\n    mapping (string => road) public roads;\n    mapping (string => user) public users;\n    mapping (string => vehicle) public vehicles;\n    mapping (string => uint) public boothCollection;\n    uint public numRoads;\n    uint public numVehicles;\n    constructor () public {\n        numRoads = 0;\n        numVehicles = 0;\n }\n    function setNewRoad(string memory _roadId, uint _roadAmount, uint _deductionForCar, uint _deductionForTruck, uint _deductionForBus) public {\n        roads[_roadId].roadAmount = _roadAmount;\n        roads[_roadId].deductionForCar = _deductionForCar;\n        roads[_roadId].deductionForBus = _deductionForBus;\n        roads[_roadId].deductionForTruck = _deductionForTruck;\n        numRoads = numRoads + 1;\n    }\n\n    function addVehicle (string memory _vehicleId, string memory _userId, string memory _vehicleType) public {\n        vehicleMapping[_vehicleId] = _userId;\n        vehicles[_vehicleId].vehicleType = _vehicleType;\n        numVehicles = numVehicles + 1;\n    }\n    function addBooth (string memory _boothId) public {\n        boothCollection[_boothId] = 0;\n    }\n    function makeNewUser (string memory _userId) public {\n        users[_userId].balance = 0;\n        users[_userId].txnHash = \"\";\n    }\n    function validateTxn (string memory _roadId, string memory _vehicleId, string memory _boothId) public returns(bool) {\n        string memory _userId = vehicleMapping[_vehicleId];\n        string memory _vehicleType = vehicles[_vehicleId].vehicleType;\n        require(roads[_roadId].roadAmount > 0, 'Exhausted road amount');\n        uint deduction = 0;\n        if(compareStrings(_vehicleType, 'car')) {\n            deduction = roads[_roadId].deductionForCar;\n        }\n        if(compareStrings(_vehicleType, 'bus')) {\n            deduction = roads[_roadId].deductionForBus;\n        }\n        if(compareStrings(_vehicleType, 'truck')) {\n            deduction = roads[_roadId].deductionForTruck;\n        }\n        \n        require(users[_userId].balance >= deduction, 'low Balance');\n        users[_userId].balance = users[_userId].balance - deduction;\n        boothCollection[_boothId] = boothCollection[_boothId] + deduction;\n        roads[_roadId].roadAmount = roads[_roadId].roadAmount - deduction;\n        roads[_roadId].collectedSoFar = roads[_roadId].collectedSoFar + deduction;\n        return true;\n    }\n    function compareStrings(string memory _s1, string memory _s2) public pure returns(bool){\n        if(bytes(_s1).length != bytes(_s2).length) {\n            return false;\n        } else {\n            return keccak256(bytes(_s1)) == keccak256(bytes(_s2));\n        }\n    }\n    function updateBalance (string memory _userId, uint _value) public {\n        users[_userId].balance = users[_userId].balance + _value;\n    }\n    function checkTxnHash (string memory _vehicleId, string memory _hash) public view returns(bool) {\n        if(keccak256(bytes(users[_vehicleId].txnHash)) == keccak256(bytes(_hash))) {\n            return true;\n        } else {\n            return false;\n        }\n    }\n    function updateTxnHash (string memory _vehicleId, string memory _oldHash, string memory _newHash) public {\n        if(checkTxnHash(_vehicleId, _oldHash)) {\n            users[_vehicleId].txnHash = _newHash;\n        }\n    }\n}",
  "sourcePath": "/home/default/production-tollblocks/front-end/src/truffle-env/contracts/roadContract.sol",
  "compiler": {
    "name": "solc",
    "version": "0.5.8+commit.23d335f2.Emscripten.clang"
  },
  "schemaVersion": "3.0.14",
  "updatedAt": "2020-02-18T04:48:22.931Z",
  "devdoc": {
    "methods": {}
  },
  "userdoc": {
    "methods": {}
  }
}